S0100000776176655F67656E2E73726563C8
S11300000C942A000C941C010C9447000C94470097
S11300100C9447000C9447000C9447000C94470040
S11300200C9447000C9447000C9447000C94470030
S11300300C9447000C9447000C9447000C94470020
S11300400C9447000C9447000C9447000C94470010
S11300500C94470011241FBECFE5D8E0DEBFCDBF0E
S113006016E0A0E6B0E0E0E0F3E002C005900D92F7
S1130070AE31B107D9F726E0AEE1B6E001C01D927A
S1130080A032B207E1F70E9451010C947E010C9456
S1130090000098B39F70282F207F922B98BBC098A4
S11300A0C19A32E03A95F1F700C0C198E7ECF0E06C
S11300B03197F1F700C0000028B32F70F0E18F9F53
S11300C0C0011124822B88BBC19A32E03A95F1F722
S11300D000C0C1988FE99FE00197F1F700C00000CC
S11300E0089598B39F70282F207F922B98BBC09AB5
S11300F0C19A32E03A95F1F700C0C198E7ECF0E01C
S11301003197F1F700C0000028B32F70F0E18F9F02
S1130110C0011124822B88BBC19A32E03A95F1F7D1
S113012000C0C1988FE99FE00197F1F700C000007B
S113013008958FEF87BB2FEF81EE94E0215080402C
S11301409040E1F700C0000083E30E94490082E38D
S11301500E94490088E20E9449008CE00E94490004
S113016081E00E9449008FE99FE00197F1F700C008
S1130170000082E80E9449000895CF93DF9300D0E5
S1130180CDB7DEB790E8998390EC9A83FE01E60F31
S1130190F11D9181890F0E9449000F900F90DF910A
S11301A0CF9108950F931F93CF93FC0180818823EF
S11301B059F08F01C0E00E947100CF5FF801EC0F8D
S11301C0F11D80818111F7CFCF911F910F91089577
S11301D081E00E9449008FE99FE00197F1F700C098
S11301E000000895E0E3F3E020E036E080813296F9
S11301F085BB85E38A95F1F70000E217F307B1F7B1
S11302000895E0E6F0E020E333E08081329685BB98
S113021085E38A95F1F70000E217F307B1F7089533
S11302208FEF85BB85E38A95F1F7000015BA85E366
S11302308A95F1F7000008951F920F920FB60F925E
S113024011248F939F93829909C080911E069091E7
S11302501F06019690931F0680931E0680911E062A
S113026090911F06039721F410921F0610921E0608
S11302709F918F910F900FBE0F901F9018958E989D
S113028080E48BBF81E085BF78940895D79817B830
S11302903E9A97B1892B87B916B886B1866886B914
S11302A008958FEF84BB0E943F0187E00E944601BE
S11302B00E9499000E94E80060E080E00E94BD0076
S11302C080E096E00E94D2000E94E80080911E0621
S11302D090911F068130910529F488EC90E00E94EA
S11302E00101F4CF029729F488EE93E00E941001F3
S11302F0EDCF88EC90E00E94F200E8CFF894FFCFB5
S113030000000100020004000500070008000900C5
S11303100B000C000E000F0011001200130015005A
S11303201600180019001A001C001D001F002000F0
S11303302200230024002600270029002A002B0085
S11303402D002E003000310033003400350037001A
S113035038003A003B003C003E003F0041004200B0
S1130360440045004600480049004B004C004D0045
S11303704F005000520053005500560057005900DA
S11303805A005C005D005E00600061006300640070
S11303906600670068006A006B006D006E006F0005
S11303A071007200740075007700780079007B009A
S11303B07C007E007F008000820083008500860030
S11303C0880089008A008C008D008F0090009100C5
S11303D0930094009600970099009A009B009D005A
S11303E09E00A000A100A200A400A500A700A800F0
S11303F0AA00AB00AC00AE00AF00B100B200B30085
S1130400B500B600B800B900BB00BC00BD00BF0019
S1130410C000C200C300C400C600C700C900CA00AF
S1130420CC00CD00CE00D000D100D300D400D50044
S1130430D700D800DA00DB00DD00DE00DF00E100D9
S1130440E200E400E500E600E800E900EB00EC006F
S1130450EE00EF00F000F200F300F500F600F70004
S1130460F900FA00FC00FD00FF00FD00FC00FA00AA
S1130470F900F700F600F500F300F200F000EF00D9
S1130480EE00EC00EB00E900E800E600E500E40023
S1130490E200E100DF00DE00DD00DB00DA00D8006E
S11304A0D700D500D400D300D100D000CE00CD00B9
S11304B0CC00CA00C900C700C600C400C300C20003
S11304C0C000BF00BD00BC00BB00B900B800B6004E
S11304D0B500B300B200B100AF00AE00AC00AB0099
S11304E0AA00A800A700A500A400A200A100A000E3
S11304F09E009D009B009A0099009700960094002E
S11305009300910090008F008D008C008A00890078
S11305108800860085008300820080007F007E00C2
S11305207C007B007900780077007500740072000D
S113053071006F006E006D006B006A006800670058
S1130540660064006300610060005E005D005C00A2
S11305505A005900570056005500530052005000ED
S11305604F004D004C004B00490048004600450038
S11305704400420041003F003E003C003B003A0082
S113058038003700350034003300310030002E00CD
S11305902D002B002A002900270026002400230018
S11305A0220020001F001D001C001A001900180062
S11305B0160015001300120011000F000E000C00AD
S11305C00B000900080007000500040002000100F8
S11305D07F0081008300860088008A008C008F00E1
S11305E091009300950097009A009C009E00A00043
S11305F0A200A400A600A900AB00AD00AF00B100AA
S1130600B300B500B700B900BB00BD00BF00C10016
S1130610C300C400C600C800CA00CC00CD00CF008F
S1130620D100D300D400D600D800D900DB00DC0010
S1130630DE00DF00E100E200E300E500E600E700A1
S1130640E900EA00EB00EC00ED00EF00F000F1003F
S1130650F200F300F300F400F500F600F700F800F0
S1130660F800F900FA00FA00FB00FB00FC00FC00B3
S1130670FD00FD00FD00FE00FE00FE00FE00FE0089
S1130680FE00FE00FF00FE00FE00FE00FE00FE0075
S1130690FE00FE00FD00FD00FD00FC00FC00FB0070
S11306A0FB00FA00FA00F900F800F800F700F60081
S11306B0F500F400F300F300F200F100F000EF00A5
S11306C0ED00EC00EB00EA00E900E700E600E500DD
S11306D0E300E200E100DF00DE00DC00DB00D90023
S11306E0D800D600D400D300D100CF00CD00CC0078
S11306F0CA00C800C600C400C300C100BF00BD00DA
S1130700BB00B900B700B500B300B100AF00AD0045
S1130710AB00A900A600A400A200A0009E009C00BB
S11307209A0097009500930091008F008C008A0036
S113073088008600830081007F007D007B007800B4
S11307407600740072006F006D006B006900670032
S11307506400620060005E005C005A0058005500AE
S1130760530051004F004D004B0049004700450025
S1130770430041003F003D003B003A003800360092
S11307803400320031002F002D002B002A002800F5
S1130790260025002300220020001F001D001C004D
S11307A01B00190018001700150014001300120094
S11307B011000F000E000D000C000B000B000A00CE
S11307C009000800070006000600050004000400F4
S11307D00300030002000200010001000100000008
S11307E00000000000000000000000000000000005
S11307F000000000000000000000000001000100F3
S113080001000200020003000300040004000500CC
S1130810060006000700080009000A000B000B0090
S11308200C000D000E000F00110012001300140044
S113083015001700180019001B001C001D001F00E4
S11308402000220023002500260028002A002B0077
S11308502D002F00310032003400360038003A00F9
S11308603B003D003F004100430045004700490074
S11308704B004D004F0051005300550058005A00E2
S11308805C005E00600062006400670069006B0049
S11308906D006F0072007400760078007B007D00AC
S11308A05369676E616C2047656E657261746F721F
S11108B00057617665204C656E677468000021
S9030000FC
